S01800004763634170706C69636174696F6E31312E7372656329
S11300000C942A000C9447000C9447000C9447006D
S11300100C9447000C9447000C9447000C94470040
S11300200C9447000C9447000C9447000C94470030
S11300300C9447000C9447000C9447000C94470020
S11300400C9447000C9447000C9447000C94470010
S11300500C94470011241FBECFE5D8E0DEBFCDBF0E
S113006011E0A0E6B0E0EAE1FCE002C005900D92E8
S1130070A835B107D9F721E0A8E5B1E001C01D9288
S1130080A835B207E1F70E945C040C940B060C94AB
S11300900000413011F04F3FB9F58230A1F018F45F
S11300A0813031F008958330C9F0843011F108951E
S11300B02AB381E090E002C0880F991F6A95E2F7A5
S11300C0822B8ABB089527B381E090E002C0880F99
S11300D0991F6A95E2F7822B87BB089524B381E0C8
S11300E090E002C0880F991F6A95E2F7822B84BBC7
S11300F0089521B381E090E002C0880F991F6A95AA
S1130100E2F7822B81BB089541113AC08230A9F0F5
S113011018F4813031F008958330D9F0843029F116
S113012008952AB381E090E002C0880F991F6A9570
S1130130E2F7809582238ABB089527B381E090E09B
S113014002C0880F991F6A95E2F78095822387BBC6
S1130150089524B381E090E002C0880F991F6A9546
S1130160E2F78095822384BB089521B381E090E077
S113017002C0880F991F6A95E2F78095822381BB9C
S113018008954130B9F58230A1F018F4813031F08E
S113019008958330C9F0843011F108952BB381E0C0
S11301A090E002C0880F991F6A95E2F7822B8BBBFF
S11301B0089528B381E090E002C0880F991F6A95E2
S11301C0E2F7822B88BB089525B381E090E002C05A
S11301D0880F991F6A95E2F7822B85BB089522B395
S11301E081E090E002C0880F991F6A95E2F7822BA4
S11301F082BB089541113AC08230A9F018F48130CD
S113020031F008958330D9F0843029F108952BB367
S113021081E090E002C0880F991F6A95E2F780950B
S113022082238BBB089528B381E090E002C0880F3D
S1130230991F6A95E2F78095822388BB089525B3B8
S113024081E090E002C0880F991F6A95E2F78095DB
S1130250822385BB089522B381E090E002C0880F19
S1130260991F6A95E2F78095822382BB08958230B4
S113027091F018F4813031F029C08330A9F0843032
S1130280E1F024C089B390E002C0959587956A9502
S1130290E2F78170089586B390E002C09595879542
S11302A06A95E2F78170089583B390E002C0959552
S11302B087956A95E2F78170089580B390E002C053
S11302C0959587956A95E2F78170089580E0089581
S11302D0823059F018F4813031F00895833039F0C8
S11302E0843039F008956ABB089567BB089564BBF0
S11302F0089561BB0895823059F018F4813031F0CB
S11303000895833039F0843039F008956BBB089533
S113031068BB089565BB089562BB089587B1806486
S113032087B987B18F7787B986B1806886B986B176
S1130330846086B986B1826086B986B18E7F86B9BB
S1130340089597B1907E8770892B87B986B18064B0
S113035086B93699FECF84B195B108959B01AC015D
S113036060E072E18AE790E00E94DA05DA01C901EF
S11303704097A109B109B695A7959795879580B936
S113038011B8089586B7846086BF86B7806286BF39
S113039086B7806886BF06B607FEFDCF089586B788
S11303A0846086BF86B7806186BF86B7806886BF53
S11303B0089583B986B7846086BF86B7806886BF90
S11303C006B607FEFDCF0895CF93DF93D82FC62F2F
S11303D00E94C20180EA0E94D9018D2F0E94D90196
S11303E08C2F0E94D9010E94CF018FE19EE40197D6
S11303F0F1F700C00000DF91CF910895CF93C82F8B
S113040040E065E083E00E94C10040E064E083E0F6
S11304100E94C1006C2F84E00E947B0141E067E0F0
S113042083E00E94C1008FE99FE00197F1F700C0CB
S1130430000040E067E083E00E94C1008FE097E2A3
S11304400197F1F700C00000CF9108954FEF64E0E9
S113045083E00E9449004FEF65E083E00E94490079
S11304604FEF67E083E00E9449006FEF84E00E9451
S113047068012FE788E391E0215080409040E1F744
S113048000C0000088E30E94FE0125E82A95F1F7E8
S1130490000088E30E94FE0185E88A95F1F70000D8
S11304A08CE00E94FE0195E89A95F1F7000081E046
S11304B00E94FE018FE99FE00197F1F700C0000060
S11304C086E00E94FE010895CF93C82F40E065E0C6
S11304D083E00E94C10041E064E083E00E94C10027
S11304E06C2F84E00E947B0141E067E083E00E947E
S11304F0C10040E067E083E00E94C1008FE097E222
S11305000197F1F700C00000CF9108950F931F9356
S1130510CF938C01C0E003C00E946402CF5FF80156
S1130520EC0FF11D80818111F7CFCF911F910F91B5
S11305300895813019F480E8860F06C0823019F4DA
S113054080EC860F01C080E00E94FE0108954FEF09
S113055063E081E00E9449004FEF64E081E00E9483
S113056049004FEF65E081E00E9449004FEF66E0EB
S113057081E00E94490041E063E081E00E94C10003
S113058041E064E081E00E94C10041E065E081E077
S11305900E94C10041E066E081E00E94C10040E0A9
S11305A064E082E00E94490040E065E082E00E944D
S11305B0490040E066E082E00E94490040E067E0D4
S11305C082E00E94490041E064E082E00E94C100B0
S11305D041E065E082E00E94C10041E066E082E023
S11305E00E94C10041E067E082E00E94C1000895DA
S11305F09F92AF92BF92CF92DF92EF92FF920F93AE
S11306001F93CF93DF93CDB7DEB728970FB6F89437
S1130610DEBF0FBECDBF83E0898324E02A8395E04B
S11306209B8386E08C832D839E838F8387E08887DA
S1130630D12C99249A9443C0AD2CB12CE1E0F0E084
S1130640EC0FFD1FEA0DFB1DC08040E06C2D81E026
S11306500E94C10010E028C0E12EF12CE5E0F0E09A
S1130660EC0FFD1FEE0DFF1D0081602F82E00E9444
S11306703701811118C08FE59AEE0197F1F700C098
S11306800000602F82E00E9437018823D1F3C50166
S1130690880F991F880F991F895B9E4FFC01EE0DEF
S11306A0FF1D908003C01F5F1430B0F241E06C2D39
S11306B081E00E94C1009FEF991205C0D39483E0AA
S11306C08D1508F0B9CF892D28960FB6F894DEBFA2
S11306D00FBECDBFDF91CF911F910F91FF90EF908F
S11306E0DF90CF90BF90AF909F9008950F931F938A
S11306F0CF9300E010E00E94F802C82F8F3FD9F397
S113070080ED8C0F8A3098F48C2F0E946402C8010B
S1130710880F991F000F111F000F111F000F111FC9
S1130720080F191F0C0F111D00531109E4CFCD330D
S113073011F7C801CF911F910F910895EDEC8E9F91
S1130740E12D1124E695E695E695EE0F9E2F990F7F
S1130750990FE90F8E1BE82FF0E0E35CFE4F6081F8
S113076082E00E947B0108954FEF60E083E00E94E5
S113077049004FEF61E083E00E9449004FEF62E0DF
S113078083E00E9449004FEF63E083E00E94490048
S11307900895CF93DF9300D000D0CDB7DEB791E0BA
S11307A0998392E09A8394E09B8398E09C8395B329
S11307B08370E1E0F0E0EC0FFD1FE80FF11D808194
S11307C0907F8F70892B85BB0F900F900F900F90A7
S11307D0DF91CF91089585B3807F85BB089513BEC3
S11307E0813069F028F0823089F08330B1F01BC089
S11307F083B78F7B83BF83B7877F83BF14C083B7DF
S1130800806483BF83B7877F83BF0DC083B78F7B2B
S113081083BF83B7886083BF06C083B7806483BF08
S113082083B7886083BF60347105C1F038F46130E8
S1130830710561F06830710569F00895611581E012
S1130840780781F06115744089F0089583B7816059
S113085083BF089583B7826083BF089583B783609D
S113086083BF089583B7846083BF089583B7856089
S113087083BF089583E389B986E880BD8AB188601F
S11308808AB98AB180618AB908955D9BFECF8CBB19
S113089008950F931F93CF938C01C0E003C00E946F
S11308A04504CF5FF801EC0FF11D80818111F7CF72
S11308B0CF911F910F9108950E948E0160EA76E80E
S11308C081E090E00E94AE010E94A7020E942602ED
S11308D060E470E080E00E94EF030E943A040E940A
S11308E0B4034FEF60E081E00E9449004FEF61E004
S11308F081E00E9449004FEF62E081E00E944900DC
S113090040E060E082E00E94490041E060E082E073
S11309100E94C10040E061E082E00E94490041E0A1
S113092061E082E00E94C10040E062E082E00E9457
S1130930490041E062E082E00E94C10081E00E943F
S1130940FE018FE99FE00197F1F700C0000060E02D
S113095081E00E94990280E690E00E94860260E0B5
S113096082E00E9499028CE690E00E9486029FEF4A
S113097023ED30E3915020403040E1F700C0000007
S113098081E00E94FE018FE99FE00197F1F700C02A
S1130990000060E081E00E94990289E790E00E94F3
S11309A0860260E082E00E9499020E94760381E060
S11309B00E94FE018FE99FE00197F1F700C000005B
S11309C060E081E00E94990289E890E00E9486023A
S11309D060E082E00E9499020E947603EC0181E0CB
S11309E00E94FE018FE99FE00197F1F700C000002B
S11309F060E081E00E9499028BE990E00E94860207
S1130A000E94F8028133E1F78CEA90E00E944904E5
S1130A1041E060E081E00E94C10081E00E94FE01AB
S1130A208FE99FE00197F1F700C0000060E081E0EA
S1130A300E94990281EC90E00E948602F12C80E0F1
S1130A400E94A1018C0181E00E94A1019C01A4EFFC
S1130A50B1E00E94FC05DC01CB01072E7AE0B695DB
S1130A60A795979587957A95D1F7702DC82E60E054
S1130A7082E00E943701E82E61E082E00E943701A3
S1130A80D82E62E082E00E9437010D3B92E0190704
S1130A9038F428E22C1520F0EE2011F0D11045C0D6
S1130AA00E94EB0340E060E081E00E94C10041E06D
S1130AB062E081E00E94C1006EEE80E00E94E401E9
S1130AC080ED90E00E94490481E00E94FE018FE9DC
S1130AD09FE00197F1F700C0000060E081E00E9410
S1130AE0990289EE90E00E94860260E082E00E9412
S1130AF099020D3B124028F08AEF90E00E94860292
S1130B0013C028E22C1528F48AE091E00E948602A2
S1130B100BC0E11005C08BE191E00E94860204C085
S1130B208DE291E00E948602FFCF811120C011E086
S1130B301F0D8F2D0E94C9039E013695279536956A
S1130B402795ABE7B4E10E94FC05969587952C2F79
S1130B5034E6839F20191124822F0E949E038FE183
S1130B609EE40197F1F700C00000F12E68CF11E078
S1130B701F0D8F2D0E94C9039E013695279536952A
S1130B802795ABE7B4E10E94FC05969587953C2F29
S1130B9024E6829F30191124832F0E949E038FE73D
S1130BA098E321E0815090402040E1F700C000002C
S1130BB0F12E45CFA1E21A2EAA1BBB1BFD010DC0CD
S1130BC0AA1FBB1FEE1FFF1FA217B307E407F507F9
S1130BD020F0A21BB30BE40BF50B661F771F881FD5
S1130BE0991F1A9469F760957095809590959B016B
S1130BF0AC01BD01CF010895A29FB001B39FC00114
S1130C00A39F700D811D1124911DB29F700D811D34
S10D0C101124911D0895F894FFCFFC
S1130C1A57454C434F4D4520494E3A005359524982
S1130C2A4E47452050554D5000456E746572205606
S1130C3A6F6C20286D6C293A00456E7465722052D7
S1130C4A617465286D6C2F68293A00507265737354
S1130C5A203120746F2053746172740050756D7062
S1130C6A696E6720537461727465642E2E2E0D0AA0
S1130C7A0050756D70696E6720416374697665000A
S1130C8A414C41524D3A2053595354454D205354E3
S1130C9A4F50504544210D0A004552524F52202FBD
S1130CAA2053544F5050454421004F63636C75736D
S1130CBA696F6E204572726F7200486967682054C2
S1130CCA656D7020416C61726D2100456E64204C23
S1130CDA696D6974205265616368656400456D6570
S1130CEA7267656E63792053746F7021003F065BE7
S1130CFA4F666D7D077F6F3738392F3435362A3181
S10B0D0A32332D43303D2B0070
S9030000FC
